:020000040800F2
:100000000004002015260008C91C0008CB1C0008AD
:10001000CD1C0008CF1C0008D11C00080000000007
:10002000000000000000000000000000D51C0008D7
:10003000D31C000800000000D71C0008D91C0008D1
:10004000F11C0008F31C0008F51C0008F71C000850
:10005000F91C0008FB1C0008FD1C0008FF1C000820
:10006000011D0008031D0008051D0008071D0008EC
:10007000091D00080B1D00080D1D00080F1D0008BC
:10008000111D0008131D0008151D0008171D00088C
:10009000191D00081B1D00081D1D00081F1D00085C
:1000A000491D00084B1D00084D1D00084F1D00088C
:1000B000511D0008A51D0008091E00080B1E0008A0
:1000C0000D1E00080F1E0008111E0008131E000858
:1000D000151E0008171E00081F1E0008271E000816
:1000E000291E00082B1E00082D1E00082F1E0008C8
:1000F000311E0008331E0008351E0008371E000898
:10010000391E00083B1E00083D1E00083F1E000867
:10011000411E0008431E0008451E0008471E000837
:10012000491E00084B1E00084D1E00084F1E000807
:1001300080B500F0DDF800F0D7F900F05FF900F0CD
:1001400007F901F0F7FF00224FF48051DFF8940324
:1001500001F0F1FE00224021DFF8880301F0EBFE00
:1001600001228021DFF87C0301F0E5FE04E001229A
:100170008021DC4801F0DFFEDFF8A00400780028D1
:1001800014D001224FF48051D64801F0D4FE012052
:1001900000F0D1FD4E4890F8A600002805D04C484C
:1001A000002180F8A61000F053FE0BE000224FF46F
:1001B0008051CC4801F0BFFE002000F0BCFD454856
:1001C0000021017044480078002811D0434800788D
:1001D00000280BD042480078002807D03F48002173
:1001E00001703F480021017001F060FB00F0EEF962
:1001F0003C4800780028BFD03A480021017001F047
:100200009DF9DFF81804007800281AD031480078EA
:10021000411C304A1170C0B25B2812D3DFF8FC03D6
:100220000021017080220021DFF8FC0802F01EFA94
:100230000E222D49DFF8F00802F0A6F82848012127
:100240000170DFF8D8030078002830D12248007808
:1002500000282CD0DFF8C8030078002827D12348D5
:100260000078411C214A1170C0B25B281ED31F4880
:100270000021017001224FF480719A4801F05BFE69
:1002800000F0FCF80121012002F0B4F8012000F098
:1002900077FC00F0C8F8212001F01EFC0028FAD0FD
:1002A00000224FF480718F4801F045FE02E00F48B4
:1002B0000021017002218B4801F030FE01287FF4FB
:1002C00056AF00228021874801F035FE54E700BF79
:1002D000A805002038070020370700204507002028
:1002E000460700203B070020802600083907002031
:1002F00080B501F007FB212001F0EEFB0028FAD0C9
:10030000802001F037FB002001F048FB002001F0C5
:100310003BFB002001F024FB0121012001F0CAFB7E
:100320000121022001F0C6FB01210D2001F0B0FBEC
:1003300001214FF4804001F0ABFB01215FF400305C
:1003400001F0B8FB01215FF0805001F0B3FB01BD6B
:1003500080B500215FF0006001F0F0FE4FF4A06076
:1003600001F08CFE25208DF8000001208DF80100A1
:1003700001208DF8020001208DF8030000A801F093
:1003800085FE26208DF8000001208DF80100022056
:100390008DF8020001208DF8030000A801F076FE20
:1003A00017208DF8000002208DF8010000208DF844
:1003B000020001208DF8030000A801F067FE1C2058
:1003C0008DF8000002208DF8010001208DF8020058
:1003D00001208DF8030000A801F058FE1D208DF8C3
:1003E000000002208DF8010002208DF8020001209B
:1003F0008DF8030000A801F049FE01BD00B583B0EF
:100400000521002001F0A0FD2020009000208DF8A3
:1004100004000C208DF8050001208DF8060000A8CE
:1004200001F0BCFD07BD80B50220ADF80000022040
:100430008DF8020028208DF8030000A9294801F05A
:1004400007FD2020ADF8000002208DF802004820B2
:100450008DF8030000A9234801F0FAFC41F2D01006
:10046000ADF8000002208DF8020010208DF8030086
:1004700000A91C4801F0ECFC01BD000080B54EF65F
:10048000CF60ADF8000004208DF8030000A91548E6
:1004900001F0DEFC4FF6FF70ADF8000004208DF88F
:1004A000030000A90C4801F0D3FC4FF6FF70ADF833
:1004B000000004208DF8030000A9084801F0C8FCE2
:1004C0004FF6FF70ADF8000004208DF8030000A97E
:1004D000034801F0BDFC01BD000C014000100140CB
:1004E000001401400008014080B500F011F800F050
:1004F00023F800F048F8FFF796FF00F0E5FF4FF40F
:10050000165000F067FB4FF4165000F03FFC01BDA1
:1005100080B57FF0040001F077FE4FF4FA7001F02F
:1005200083FE7FF0010001F085FE002001F082FED5
:10053000012001F097FE01BDE0B52720ADF80000D5
:100540000020ADF8020040F2E730ADF804000020D2
:10055000ADF8060000208DF8080000A95FF080408B
:1005600001F096FE01215FF0804001F0CBFE0122F8
:1005700001215FF0804001F0B9FE01215FF0804071
:1005800001F0A6FE07BDE0B54FF49660ADF800009F
:100590000020ADF802004FF47A70ADF8040000209E
:1005A000ADF8060000208DF8080000A9DFF8A005CE
:1005B00001F06EFE0121DFF8980501F0A3FE012293
:1005C0000121DFF88C0501F091FE07BD80B5002008
:1005D0000F490978002919D011480078002815D151
:1005E0000C4801F091FFC0B20B280FD206220A4935
:1005F000084801F0A4FF002805D108480121017036
:1006000007480121017002480021017001BD00BFAF
:100610004207002000040020E826000836070020DA
:10062000470700202DE9FE430400894600250026E7
:1006300000275FF000080A22002100A802F016F847
:10064000207806000120050003E0EDB2285D464059
:100650006D1CEDB25FFA89F9B9F103008542F4DB54
:100660005FFA89F919EB0400801E01F073FDF6B200
:10067000864206D0DFF8B404002180F83E10002046
:100680000FE15FFA89F9B9F13C0F04D35FFA89F9F8
:10069000B9F1510F06D3DFF89404002180F83E1021
:1006A0000020FEE080A1200001F074FF0700FFB2EF
:1006B0003819411C200001F005FF7BA1200001F04A
:1006C00069FF0700FFB23A1F2100784801F05CFE85
:1006D000DFF85804407830380A2100FB01F8DFF8D1
:1006E0004C048078303810EB0808DFF8400418F12B
:1006F000080180F83D1000A9DFF8300490F83D00B3
:1007000001F046FDDFF8240490F83D000A2809D2E4
:10071000DFF8180430214170DFF810049DF8001054
:10072000817009E0DFF804049DF800104170DFF8E3
:10073000FC039DF801108170DFF8F0030021C17106
:10074000FFB23819411C200001F0BCFE56A1200068
:1007500001F020FF0700DFF8D40321780170DFF8F3
:10076000CC030078412806D0DFF8C003002180F8D0
:100770003E10002095E0FFB23819411C200001F026
:10078000A1FE49A1200001F005FF0700FFB23A00D9
:100790002100474801F0F8FDDFF890030021C17601
:1007A000FFB23819411C200001F08CFE3EA1200050
:1007B00001F0F0FE0700DFF8740321780177FFB243
:1007C0003819411C200001F07DFE37A1200001F006
:1007D000E1FE0700FFB23A002100364801F0D4FDE7
:1007E000DFF84803002180F82710FFB23819411CB8
:1007F000200001F067FE2CA1200001F0CBFE0700D5
:10080000CA48217880F82810FFB23819411C20000E
:1008100001F058FE24A1200001F0BCFE0700FFB249
:100820003819411C200001F04DFE1FA1200001F0ED
:10083000B1FE0700FFB23819411C200001F042FE52
:1008400019A1200001F0A6FE0700FFB23A00210026
:1008500000A801F099FDB54832210172B34830215A
:100860004172B2489DF804108172B0489DF805109D
:10087000C172AE489DF802100173AC489DF8031098
:100880004173AA489DF800108173A8489DF8011093
:10089000C173A64800210174A448012180F83E10CC
:1008A0000120BDE8FE8300BF2C000000F1060020FF
:1008B000020700200D07002038B500240025802203
:1008C0000021994801F0D2FE934800210C0007E076
:1008D000ADB29249691802780A736D1C401C641C01
:1008E000E4B2052CF4D3ADB28C4828188F4991F8A6
:1008F000281001736D1CADB2884828182C21017393
:100900006D1CADB2854828188849497F01736D1C5C
:10091000ADB2824828188549897F01736D1CADB23C
:100920007E4828188149C97F01736D1CADB27B4890
:100930002818272101736D1C00240AE0E4B27B48CB
:10094000201890F82000ADB27449691808736D1C26
:10095000641CE4B2072CF1D3ADB2704828180D2105
:1009600001736D1C6E48002407E0ADB26B49691835
:1009700002780A736D1C401C641CE4B2042CF4D38E
:10098000ADB2664828186949097F01736D1CADB284
:10099000624828182C2101736D1CADB25F482818DD
:1009A0006249897C01736D1CADB25C4828185F49AF
:1009B000C97C01736D1CADB25848281827210173FA
:1009C0006D1C002409E0E4B258482018007DADB247
:1009D0005249691808736D1C641CE4B2072CF2D3E9
:1009E000ADB24E4828180D2101736D1C4D480024EE
:1009F00007E0ADB24949691802780A736D1C401CC2
:100A0000641CE4B2052CF4D3ADB24448281847491D
:100A1000097A01736D1CADB2404828184349497AE0
:100A200001736D1CADB23D4828184049897A0173A5
:100A30006D1CADB2394828183C49C97A01736D1C48
:100A4000ADB2364828182F2101736D1CADB2334862
:100A500028183649097B01736D1CADB22F48281840
:100A60003249497B01736D1CADB22C4828182F21E7
:100A700001736D1CADB2294828182C49897B01737C
:100A80006D1CADB2254828182849C97B01736D1C1F
:100A9000ADB2224828182D2101736D1CADB21F483C
:100AA00028182249497801736D1CADB21B482818DB
:100AB0001E49897801736D1CADB2184828183A2177
:100AC00001736D1CADB2154828181849C978017317
:100AD0006D1CADB2114828181449097901736D1CB9
:100AE000ADB20E4828183A2101736D1CADB20B4807
:100AF00028180E49497901736D1CADB207482818B2
:100B00000A49897901736D1CADB204482818002187
:100B100001736D1C31BD00BFF02600086406002083
:100B2000F82600080027000870060020F0060020C4
:100B300080B5054901220A70001804490870012196
:100B4000034801F0C5FB01BD3C0700203D07002024
:100B50000004004010B50400012001F06BFB0748C1
:100B60000480064800880028FBD17FF0010001F0D6
:100B700061FB002001F05EFB10BD00BF34070020C8
:100B800080B5C0B2002819D04FF40070ADF8000055
:100B900018208DF8030002208DF8020000A97A4881
:100BA00001F056F94FF48060ADF8000004208DF894
:100BB000030000A9744801F04BF90AE04FF4C0604B
:100BC000ADF8000000208DF8030000A96E4801F088
:100BD0003FF901BD00B585B080B200900020ADF8AE
:100BE00004000020ADF806000020ADF80800002049
:100BF000ADF80C000C20ADF80A0000A9DFF88C0756
:100C000000F094FF0120FFF7BBFF012240F22551C5
:100C1000DFF8780700F0E5FF0121DFF8700700F04A
:100C2000D3FF05B000BD000080B500203B49098816
:100C30000800DFF85C17B1F88C1180B281422ED029
:100C40001B4800210170DFF84807B0F88C01DFF87D
:100C50004017401890F8801089B2DFF8300700F094
:100C6000E8FFDFF82C07B0F88C01401CDFF82017F4
:100C7000A1F88C01DFF81807B0F88C014FF48071EF
:100C8000884204D3DFF808070021A0F88C11012264
:100C900040F22771DFF8F40600F0A3FF06E000221F
:100CA00040F22771DFF8E40600F09BFF01BD00BFB2
:100CB0008E0500200021DFF8D826B2F88C21110023
:100CC000164A128889B28A4215D314490988DFF876
:100CD000C026891881F8800010480088401C0F4900
:100CE00008800E4800884FF48071884202D30B4878
:100CF0000021018011E089B2084A1288891A02296C
:100D00000BDB06490988DFF88826891881F88000FE
:100D100002480088401C0149088070478A0500206D
:100D200010B5040003E02078FFF7C4FF641C2078AE
:100D30000028F8D110BD80B5C0B2002817D004201B
:100D4000ADF8000018208DF8030002208DF8020095
:100D500000A90D4801F07CF80820ADF8000004203F
:100D60008DF8030000A9084801F072F809E00C2092
:100D7000ADF8000000208DF8030000A9024801F042
:100D800067F801BD000000000008014000B585B013
:100D900080B200900020ADF804000020ADF80600FD
:100DA0000020ADF808000020ADF80C000C20ADF8D4
:100DB0000A0000A9254800F0B9FE0120FFF7BBFF9B
:100DC000012240F22551214800F00BFF01211F486C
:100DD00000F0FAFE05B000BD80B500203149B1F841
:100DE000AA1008002F49B1F8AC1080B2814225D07A
:100DF0002C48002180F8AE102A48B0F8AC002949F0
:100E0000401890F8801089B2104800F012FF254871
:100E1000B0F8AC00401C2349A1F8AC002148B0F860
:100E2000AC00202803D31F480021A0F8AC100122F9
:100E300040F22771054800F0D4FE05E0002240F2A0
:100E40002771024800F0CDFE01BD000000440040C3
:100E500080B5144847210170124850214170114853
:100E6000522181700F484D21C1700E4843210171FC
:100E70000C48B0F8A010C9B20A48FFF7D3FB01280C
:100E80000AD1064800210170FFF716FD0448012130
:100E900001700220FFF74CFE01BD00BF36070020A5
:100EA00046070020A805002010B5002440F2277155
:100EB000DFF8D80400F0C9FE012801D1FFF7B4FE25
:100EC00040F22551DFF8C40400F0BFFE012840F0D5
:100ED0004082DFF8B80400F0B0FE04002021DFF803
:100EE000AC0400F0AEFE40F22551DFF8A00400F0A3
:100EF000DEFEDFF89C04DFF8981491F8901180F87A
:100F00008F11DFF88C04DFF8881491F8911180F8C4
:100F10009011DFF87C04DFF83C14097880F8911117
:100F2000DFF83004DFF8681491F893110170DFF8EE
:100F30006004DFF85C1491F8941180F89311DFF8E5
:100F40005004DFF84C1491F8951180F89411DFF8F3
:100F50004004DFF80414097880F89511DFF8F803ED
:100F6000DFF82C1491F897110170DFF82404DFF8F2
:100F7000201491F8981180F89711DFF81404DFF825
:100F8000101491F8991180F89811DFF80404DFF833
:100F9000CC13097880F89911DFF8C003DFF8F0135B
:100FA00091F89B110170DFF8E803DFF8E41391F882
:100FB0009C1180F89B11DFF8D803DFF8D41391F867
:100FC0009D1180F89C11DFF8C803DFF894130978AD
:100FD00080F89D11DFF88803DFF8B41391F89F11B2
:100FE0000170DFF8AC03DFF8A81391F8A01180F8C6
:100FF0009F11DFF89C03DFF8981391F8A11180F896
:10100000A011DFF88C03DFF85C13097880F8A111D8
:10101000DFF85003DFF8781391F8A3110170DFF8BF
:101020007003DFF86C1391F8A41180F8A311DFF8B6
:10103000600380F8A441E4B23E2C03D1DFF828031A
:1010400001210170DFF8480390F8A1014F2808D171
:10105000DFF8100300784B2803D1DFF810030121DB
:101060000170DFF82C0390F89D0120281DD1DFF8D6
:10107000F0020078522818D1DFF8140390F89F018D
:10108000652812D1DFF8080390F8A00161280CD17F
:10109000DFF8FC0290F8A101642806D1B14800787D
:1010A000792802D1B24801210170AC480078432868
:1010B0001AD1DFF8DC0290F89B01522814D1B44811
:1010C00090F89C0145280FD1B14890F89D01472820
:1010D0000AD1A34800783A2806D1A24800783128DE
:1010E00002D1A448012101709C480078432819D1FD
:1010F000A74890F89B01522814D1A54890F89C016C
:1011000045280FD1A24890F89D0147280AD194485C
:1011100000783A2806D193480078352802D19548BE
:10112000012101709A4890F88F012B285ED19848D0
:1011300090F89001432859D1954890F891014D2895
:1011400054D184480078542850D1914890F89301A4
:101150003A284BD18E4890F89401202846D18C48EB
:1011600090F89501222841D1894890F8A1012228C0
:101170003CD179480078804908707F48844991F8CB
:10118000971141707C48824991F8981181707A4892
:101190007F4991F89911C1707748704909780171B8
:1011A00075487B4991F89B1141717348784991F8D2
:1011B0009C1181717048764991F89D11C1716E48FA
:1011C0006749097801726C48714991F89F11417221
:1011D00069486F4991F8A011817267480021C17276
:1011E000664801210170664801210170684890F845
:1011F0008F012B2862D1664890F8900143285DD179
:10120000634890F891014D2858D1524800785428ED
:1012100054D15F4890F893013A284FD15C4890F838
:10122000940120284AD15A4890F89501222845D1A6
:10123000574890F8A401222840D1474800782B282D
:101240003CD1534890F899014B4908704A484349AA
:101250000978417048484E4991F89B118170464881
:101260004B4991F89C11C1704348494991F89D112F
:10127000017141483A49097841713F48444991F820
:101280009F1181713C48424991F8A011C1713A48BF
:101290003F4991F8A11101723748324909784172EA
:1012A00035483B4991F8A311817233480021C1723E
:1012B0003248012101703248012101703048007824
:1012C000002846D02F480078002842D1E4B20D2CE7
:1012D00015D12D480078401C2B490870C0B2022857
:1012E0000CD12948002101702548002101702848AF
:1012F000002180F8871123480121017029E0E4B220
:101300000A2C08D122480021A0F880112048012190
:1013100080F887111DE01E4890F88701002818D03A
:101320001B48B0F8800180280CD21948B0F8800121
:10133000174944541648B0F88001401C1449A1F8DC
:10134000800106E01248002180F887110E48002134
:10135000017010BD92050020960500209A0500201E
:101360009E050020A20500203E0700203F07002028
:1013700040070020410700206406002045070020A8
:1013800043070020420700204407002000380140A6
:101390000004002010B540F22771494800F055FCC8
:1013A000012801D1FFF718FD40F22551444800F013
:1013B0004CFC012840F082800024414800F03DFCB4
:1013C000040020213E4800F03CFC40F225513C48FE
:1013D00000F06DFC3B483B4991F8B01080F8AF102D
:1013E0003848384991F8B11080F8B010354835497F
:1013F00091F8B21080F8B1103248324991F8B31028
:1014000080F8B2102F4880F8B3402E4890F8A6001C
:10141000002853D12B4890F8AF0047281CD1294809
:1014200090F8B000502817D1264890F8B100522803
:1014300012D1244890F8B2004D280DD1214890F8DF
:10144000B300432808D11F480521A0F8A0101D486B
:10145000012180F8A71031E0E4B20D2C13D1194816
:1014600090F8A70000280DD01648B0F8A000154944
:10147000002242541348002180F8A710114801218E
:1014800080F8A6101AE00F4890F8A700002815D0A1
:101490000C48B0F8A00080280CD20A48B0F8A00090
:1014A000084944540748B0F8A000401C0549A1F879
:1014B000A00003E00348002180F8A71010BD00BF82
:1014C00000440040A805002080B5012210211A48E0
:1014D00000F031FD00224FF48071174800F02BFD21
:1014E00001BD80B501221021134800F024FD002227
:1014F0001021114800F01FFD4FF41660FFF72AFB82
:10150000012210210C4800F016FD01BD80B501221A
:101510001021094800F00FFD00221021064800F0BC
:101520000AFD4FF44870FFF715FB01221021024815
:1015300000F001FD01BD00000008014080B5A14898
:101540000078012819D0022823D0032827D00428A6
:1015500043D0112860D0122878D0212800F0948040
:10156000222800F0AF80232800F0CA80242800F051
:10157000E580252800F0008123E1FFF7B2FF9248C3
:101580000F2101809148002101708E4803210170D4
:1015900001BDFFF7BBFF8B4801210170F8E78C48C4
:1015A0000078002809D087480421017086480F215F
:1015B0000180874800210170EAE700F00FF98248B6
:1015C0000088012805D380480088401E7E49088095
:1015D00002E07C4802210170DAE77D4800780028AB
:1015E00009D078481121017077483C210180784862
:1015F00000210170CCE7302000F00EF9724800881D
:10160000012805D370480088401E6F49088002E019
:101610006C4801210170BBE76E480078002807D0B4
:1016200068481221017068484FF461610180AFE79A
:1016300065480088012805D363480088401E624938
:10164000088002E05F4801210170A1E7624800784C
:10165000002809D05B48212101705B480F210180DF
:101660005B480021017093E700F0CCF856480088F1
:10167000012805D354480088401E5349088002E0E1
:1016800050480121017083E751480078002809D0B3
:101690004C48222101704C480F2101804C48002108
:1016A000017075E700F0C8F847480088012805D3A5
:1016B00045480088401E4449088002E04148012115
:1016C000017065E742480078002809D03D48232191
:1016D00001703D480F2101803D480021017057E70E
:1016E00000F0B4F838480088012805D3364800884F
:1016F000401E3549088002E032480121017047E769
:1017000033480078002809D02E48242101702E4843
:101710000F2101802E480021017039E700F0ACF85C
:1017200029480088012805D327480088401E2649FB
:10173000088002E023480121017029E7244800784D
:10174000002809D01F48252101701F480F21018062
:101750001F48002101701BE700F04AF81A48008872
:10176000012805D318480088401E1749088002E068
:101770001448012101700BE71548007800280FD0AC
:1017800010480021017010480F21018010480021ED
:1017900001700E48012101700620FFF7C9F9F7E634
:1017A000312000F073F808480088012805D3064866
:1017B0000088401E0449088002E0024801210170AF
:1017C000E6E6E5E64A070020480700203707002044
:1017D0003F070020400700204107002080B503A0FC
:1017E000FFF79EFA0D20FFF765FA01BD4154000096
:1017F00080B50348FFF794FA0D20FFF75BFA01BDAF
:101800000827000880B50348FFF78AFA0D20FFF784
:1018100051FA01BDA026000810B5040005A0FFF78D
:101820007FFA2000C0B2FFF745FA0D20FFF742FA19
:1018300010BD00BF4154450080B50348FFF770FA62
:101840000D20FFF737FA01BDAC26000880B5094826
:10185000FFF766FA2220FFF72DFA05A0FFF760FADE
:101860002220FFF727FA0D20FFF724FA01BD00BF61
:1018700047534D00B826000880B50348FFF750FADB
:101880000D20FFF717FA01BD4426000810B504002B
:101890000548FFF745FA2000C0B2FFF70BFA0D200C
:1018A000FFF708FA10BD00BFC426000880B5104835
:1018B000002101700F48FFF733FA2220FFF7FAF9F1
:1018C0000D48FFF72DFA2220FFF7F4F90D20FFF75E
:1018D000F1F9074800780028FBD00848FFF720FA04
:1018E0001A20FFF7E7F906480021017001BD00BF8B
:1018F0003E070020D0260008640600207006002065
:1019000047070020DFF81402006850F00100DFF8FC
:101910000C1208605D4800680F4908405B49086088
:10192000DFF8F80100680D490840DFF8F0110860A1
:10193000DFF8E801006830F48020DFF8E01108608B
:101940005248006830F4FE0050490860DFF8D801C2
:1019500000210160704700BF0000FFF8FFFFF6FEA6
:1019600000214A4A1268110003229143014347486B
:10197000016070470021454A1268110031F0F00102
:1019800001434248016070470021404A126811003B
:1019900031F4E06101433D480160704700213B4A5A
:1019A0001268110031F4605151EAC00137480160FA
:1019B0007047000030B40022002100230024334D82
:1019C0002D6815F00C052A00002A04D0042A05D041
:1019D000082A06D025E02949016024E02749016052
:1019E00021E02A49096811F47011890C891C274AE1
:1019F000126812F48033002B04D1214A01FB02F15A
:101A000001600DE0214A126812F4003F04D01C4A24
:101A100001FB02F1016003E0184A01FB02F10160E1
:101A200001E0164901601949096811F0F002120934
:101A30001449545C0168E14041601449096811F49B
:101A4000E062120A0F49545C4168E14081600F492D
:101A5000096811F46052D20A0A49545C4168E140B5
:101A6000C1600A49096811F44042920B0649545C6E
:101A7000C168B1FBF4F1016130BC704700127A001B
:101A800000093D00902600081827000804100240B5
:101A9000C9B2002905D0064909680843044908600D
:101AA00005E003490968C0430840014908607047E0
:101AB00018100240C9B2002905D006490968084338
:101AC0000449086005E003490968C043084001492A
:101AD000086070471C10024018B401000022002367
:101AE0000020C9B24C09E4B22200012A02D10B48FD
:101AF000036806E0022A02D10948036801E00948A8
:101B00000368C9B211F01F02012090401840401E26
:101B10008041C043C00FC0B212BC704700100240E9
:101B20002010024024100240081002402DE9F0432A
:101B300085B005000C000020002600275FF000089B
:101B40005FF00009A946298A08004CF6FF71084099
:101B5000E18808432882A8894EF6F3110840A1883D
:101B600022891143628911430843A881A88A4FF64C
:101B7000FF410840A1890843A88200A8FFF71AFF87
:101B80001048814501D1039E00E0029E1920704358
:101B900021688900B0FBF1F76420B7FBF0F0000189
:101BA0000109642201FB12785FEA081132316422D4
:101BB000B1FBF2F111F00F010843288105B0BDE837
:101BC000F08300BF00380140C9B2002904D08189E8
:101BD00051F40051818103E0818931F40051818108
:101BE000704778B400240025002600230300080075
:101BF000C0B24009C0B2040089B211F01F00050054
:101C00000120A8400600012C01D10C3304E0022C75
:101C100001D1103300E01433D2B2002A03D0186887
:101C20003043186003E01868F1430840186071BC45
:101C30007047C905C90D818070478088C005C00DF7
:101C4000704789B2C9430180704778B4020000240C
:101C50000023002500200E00F6B27609F6B235000A
:101C600089B211F01F063300012616FA03F3012D85
:101C700002D19089034006E0022D02D1108A034070
:101C800001E0908A034089B20C0AA4B2012010FA44
:101C900004F410880440002B05D02000401E804131
:101CA000C043C00F00E00020C0B272BC70470022E9
:101CB000002389B2090A0A00012191400B009BB25E
:101CC000D9430180704700007047FEE7FEE7FEE75A
:101CD000FEE770477047704704480088002804D02A
:101CE00002480088401E01490880704734070020E0
:101CF000704770477047704770477047704770472C
:101D0000704770477047704770477047704770471B
:101D1000704770477047704770477047704780B58D
:101D2000202000F08EF900280DD0202000F0A0F92E
:101D3000202000F083F9012000F078FB002802D079
:101D4000012000F081FB01BD70477047704770476C
:101D500080B501215FF0804000F0D4FA0E48007891
:101D6000022802D3FEF760FF04E00B480078401C15
:101D70000949087009480078642805D207480078A6
:101D8000401C0649087005E0054801210170034820
:101D90000021017001BD00BF8E0500203A07002020
:101DA0003B07002080B50121134800F0ABFA13482F
:101DB000007800281FD04021114800F0AFF8D0F182
:101DC0000102D2B240210E4800F0B5F80D4800786B
:101DD000401E0C4908700B48007800280BD10021E8
:101DE000054800F075FA05480021017001224021E4
:101DF000034800F0A0F801BD000400403C070020AB
:101E0000000801403D070020704770477047704749
:101E100070477047704780B5FFF746F801BD80B541
:101E2000FFF7B8FA01BD70477047704770477047B9
:101E300070477047704770477047704770477047EA
:101E400070477047704770477047704770477047DA
:101E5000F0B400220026002300250024002791F87A
:101E600003C01CF00F0C624691F803C01CF0100F69
:101E700001D08B781A430B881B0621D004680023FD
:101E800006E0CD78482D02D101259D4005615B1CFF
:101E9000082B14D201259D400E882E40AE42F6D16B
:101EA0009D000F27AF40FE43344012FA05F52C4346
:101EB000CD78282DE5D101259D404561E7E70460F7
:101EC0000B884FF48074A34226D34468002320E09B
:101ED000012513F10806B5400E882E40AE4217D1F9
:101EE0009D000F27AF40FE43344012FA05F52C4306
:101EF000CD78282D04D1012513F10806B5404561A0
:101F0000CD78482D04D1012513F10806B5400561AF
:101F10005B1C082BDCD34460F0BC7047020000203F
:101F2000926811400A0092B2521E9241D243D20FDF
:101F30001000C0B27047D2B2002A02D089B201614B
:101F400001E089B24161704718B400220F2311F0FB
:101F50000304E4B2A400A3401A00C9B28B100E4CD3
:101F600054F82330D2431A40C9B28B100A4C44F8BB
:101F70002320C9B28A10084B53F82220C0B211F0B6
:101F80000303DBB29B0098401043C9B28910024A98
:101F900042F8210011BC70470800014081790029F6
:101FA0003CD0324909680268D24311402F4A11607F
:101FB0001F4909680268D24311401D4A1160017926
:101FC0002A4A5158026811430279284B99501949FD
:101FD00009680268D2431140164A1160164909681F
:101FE0000268D2431140144A1160417910290CD182
:101FF00010490968026811430E4A11600E490968C8
:10200000006808430C49086007E04179174A5158B5
:10201000026811434079154A115008E00179134ACA
:1020200051580268D24311400079104A115070474C
:1020300004040140080401400C0401400E490860FA
:102040007047010000200022084B1B680B401A005B
:10205000094B1B68194205D01000401E8041C04347
:10206000C00F00E00020C0B2704700000004014033
:102070000149086070470000140401400249084308
:1020800033490860704700000000FA0578B4002169
:102090000022002300240F25C678002E36D02C49BC
:1020A000096811F4E061D1F5E061090AD1F1040495
:1020B000CD404178A14082782A401143090102783D
:1020C00012F00302D2B2D200914002789210174B64
:1020D00053F82220FF23047814F00304E4B2E40050
:1020E000A340DC43224019400A43017889100F4B7A
:1020F00043F82120017849110B4A0123007810F0A0
:102100001F0013FA00F042F821000AE0017849119B
:10211000074A0123007810F01F0013FA00F042F87C
:10212000210071BC704700BF00E100E000E400E066
:1021300080E100E080B500F00EF901BD024A1140D7
:10214000084302490860704780FFFF1F08ED00E068
:102150000CED00E018B401000022002300200C78F0
:102160003A2C03D20878B0F1300202E00878B0F1DE
:10217000370248783A2803D24878B0F1300302E0B9
:102180004878B0F1370310011818C0B212BC70477C
:102190000022C0B264281DD3C0B2642290FBF2F2C8
:1021A00030320A70C0B2642290FBF2F303FB1200DB
:1021B000C0B20A2290FBF2F230324A70C0B20A2258
:1021C00090FBF2F303FB120212F130008870002042
:1021D000C87018E0C0B20A2811D3C0B20A2290FB1E
:1021E000F2F230320A70C0B20A2290FBF2F303FB23
:1021F000120212F1300048700020887003E0303085
:102200000870002048707047042806D11F480068F5
:1022100050F004001D49086005E01C48006830F0DB
:1022200004001A490860704701490860704700BF00
:1022300014E000E0012806D11448006850F00100C5
:10224000124908600DE07FF00101884206D10F4875
:102250000068012188430D49086002E00A48002116
:1022600001607047C0B2002806D00848006850F0EE
:1022700002000649086005E00448006830F00200EA
:10228000024908607047000018E000E010E000E03C
:1022900018B4028812F08F0202800288CB884C8822
:1022A00023431A4302808A8882850A880285012294
:1022B0008282054A904202D0044A904201D1097AB2
:1022C000018611BC70470000002C01400034014021
:1022D000C9B2002904D0018851F00101018004E055
:1022E000018840F2FE32114001807047D2B2002ACC
:1022F00003D082891143818103E08289C94311405F
:102300008181704789B2C9430182704730BF7047ED
:1023100020BF704740BF7047BFF36F8F7047BFF358
:102320004F8F7047BFF35F8F704701DF7047EFF348
:102330001480704780F31488BFF36F8F7047EFF3FA
:102340000980704780F309887047EFF30880704771
:1023500080F30888704762B6704772B67047EFF333
:102360001080704761B6704771B67047EFF3138005
:10237000704780F311887047EFF31280704740BABE
:10238000704700BA7047000001B58B0718D1121FC3
:1023900021D351F8043BA3F1013C2CEA030C1CF0BF
:1023A000803C04BF40F8043BF1E79CFA8CFCBCFA8B
:1023B0008CF1C1F118018B40CB4040F8043B13E095
:1023C000042A09D311F8013B521E00F8013B5BB10E
:1023D0008B07F7D1DBE7121D5AB111F8013B521EF2
:1023E00000F8013B03B1F8D111001CBF002200F03E
:1023F00039F801BD80B50022174B1B681A00032372
:102400009A430243144802600748006850F00400F1
:10241000054A1060C9B2012902D1FFF777FF01E038
:10242000FFF776FF01BD000010ED00E00100002085
:10243000044A12681140491E8941C943C90F080066
:10244000C0B27047047000400349096851EA800037
:1024500001490860704700000070004062F30F22DD
:1024600062F31F42401810F0030308D0C91A1FD3AB
:10247000DB0748BF00F8012D28BF20F8022D13000C
:1024800030B414461546103928BF20E93C00FAD86C
:10249000490728BF20E90C0048BF40F8042D8900F7
:1024A00028BF20F8022D48BF00F8012D30BC70472E
:1024B000C91818BF00F8012DCB0728BF00F8012D5F
:1024C000704700005FEA000C830706D011F8013B5B
:1024D00000F8013BB3B18307F8D10A68B2F10133C8
:1024E00023EA020313F0803F02BF40F8042B51F8A7
:1024F000042FF3E711F8013B00F8013B13B111F889
:10250000013BF9E76046704700F10103810704D001
:1025100010F8011B89B18107FAD10268B2F10131CB
:10252000914311F0803F04BF50F8042FF6E710F8F4
:10253000011B11B110F8011BFBE7C01A704718B45A
:1025400001E0491C521E002A0FD003780C78A342E8
:1025500007D003D24FF0FF3012BC7047012012BCED
:10256000704710F8013B002BEBD1002012BC7047E4
:1025700018B409E050F8041B50F8042B51F8044B30
:1025800042F8044B1B1FF9D150F8043B002BF1D14A
:1025900012BC704730B4024600E0521C13783BB1C5
:1025A0000C462578002DF8D014F8015BAB42F8D129
:1025B000101A30BC70470000F925000848030000DD
:1025C0000004002000000000712500080400000045
:1025D00020270008480700200000000010B504482C
:1025E000044C02E050F8041B8847A042FAD110BD09
:1025F000B8250008DC250008002305E050F8041B7E
:1026000041F8043B121FFBD150F8042B002AF5D1EE
:102610007047000000F082F8002801D0FFF7DEFFCD
:102620000020FDF785FD00F073F8000080B5044937
:102630000868002803D00220ABBE0020086001BD5E
:102640003007002041542B434E4D493D322C322C53
:10265000302C302C3000000080B5FFF7E7FF024936
:102660001820ABBEFCE7C0462600020010B50400EF
:1026700010000A0001002000FFF7F0FE200010BD4E
:102680004E6F20475053205369676E616C2E0000D7
:102690000000000001020304010203040607080908
:1026A00041542B435245473F0000000041542B4307
:1026B0004D47463D3100000041542B435343533DA9
:1026C0000000000041542B5153434C4B3D0000008F
:1026D00041542B434D47533D000000000746384608
:1026E000FFF7BAFFFBE700004750533030310000DE
:1026F0004C6F6E673A0000004C61743A00000000B5
:1027000054696D653A00000041542B435351000059
:1027100080B5FFF7E3BF0000020406080120704700
:042720000F000100A5
:0400000508002615B4
:00000001FF
